S00C0000426173652E737265639D
S11300000C942A000C943F000C943F000C943F0085
S11300100C943F000C943F000C943F000C943F0060
S11300200C943F000C943F000C943F000C943F0050
S11300300C943F000C943F000C943F000C943F0040
S11300400C943F000C943F000C943F000C943F0030
S11300500C943F0011241FBECFE5D8E0DEBFCDBF16
S113006010E0A0E6B0E0E8E3F5E002C005900D92F0
S1130070AC3EB107D9F70E9496010C949A020C94F5
S11300800000982F9695969596958770913021F15A
S113009030F09230F1F1933009F458C00895613092
S11300A069F44BB321E030E0B90102C0660F771F59
S11300B08A95E2F7CB01842B8BBB08954BB321E0E7
S11300C030E0B90102C0660F771F8A95E2F7CB01D1
S11300D0809584238BBB0895613069F448B321E093
S11300E030E0B90102C0660F771F8A95E2F7CB01B1
S11300F0842B88BB089548B321E030E0B90102C0E5
S1130100660F771F8A95E2F7CB018095842388BB1D
S11301100895613069F445B321E030E0B90102C0CB
S1130120660F771F8A95E2F7CB01842B85BB089570
S113013045B321E030E0B90102C0660F771F8A950C
S1130140E2F7CB018095842385BB0895613069F47F
S113015042B321E030E0B90102C0660F771F8A95EF
S1130160E2F7CB01842B82BB089542B321E030E057
S1130170B90102C0660F771F8A95E2F7CB0180951B
S1130180842382BB0895CF93DF93CDB7DEB7C054E9
S1130190D1090FB6F894DEBF0FBECDBF80E4E0E610
S11301A0F0E0DE01119601900D928A95E1F780E06E
S11301B0B0C0982F969596959695282F27709130D4
S11301C081F138F0923009F454C0933009F479C0C5
S11301D09FC0E82FF0E0EE0FFF1F41E050E04C0F0E
S11301E05D1FE40FF51F9081913069F49AB341E0EB
S11301F050E0BA0102C0660F771F2A95E2F79B010F
S1130200292B2ABB85C09AB341E050E0BA0102C051
S1130210660F771F2A95E2F79B01209529232ABBB5
S113022077C0E82FF0E0EE0FFF1F41E050E04C0FE5
S11302305D1FE40FF51F9081913069F497B341E09D
S113024050E0BA0102C0660F771F2A95E2F79B01BE
S1130250292B27BB5DC097B341E050E0BA0102C02F
S1130260660F771F2A95E2F79B012095292327BB68
S11302704FC0E82FF0E0EE0FFF1F41E050E04C0FBD
S11302805D1FE40FF51F9081913069F494B341E050
S113029050E0BA0102C0660F771F2A95E2F79B016E
S11302A0292B24BB35C094B341E050E0BA0102C00D
S11302B0660F771F2A95E2F79B012095292324BB1B
S11302C027C0E82FF0E0EE0FFF1F41E050E04C0F95
S11302D05D1FE40FF51F9081913069F491B341E003
S11302E050E0BA0102C0660F771F2A95E2F79B011E
S11302F0292B21BB0DC091B341E050E0BA0102C0EB
S1130300660F771F2A95E2F79B012095292321BBCD
S11303108F5F803208F44DCFC05CDF4F0FB6F89486
S1130320DEBF0FBECDBFDF91CF9108950E94C30001
S11303308DE40E94160260E08CE00E94410060E8B7
S113034075E280E090E00E942C028EE40E94270275
S11303502FEF85EA9EE0215080409040E1F700C0F5
S1130360000088E90E9427022FEF85EA9EE02150D1
S113037080409040E1F700C000000E945A02C82F5C
S1130380813349F461E08AE10E94410080EA90E00F
S11303900E9462020AC0823341F460E08AE10E9452
S11303A0410089EA90E00E946202C33349F461E0AB
S11303B08BE10E94410083EB90E00E9462020AC03C
S11303C0C43341F460E08BE10E9441008CEB90E087
S11303D00E946202C53349F461E08CE10E9441004D
S11303E086EC90E00E9462020AC0C63341F460E0E9
S11303F08CE10E9441008FEC90E00E946202C733BE
S113040049F461E08DE10E94410089ED90E00E9491
S113041062029BCFC83309F098CF60E08DE10E945F
S1130420410082EE90E00E9462028FCF8D3419F079
S1130430833549F008958DB180658DB961E08CE014
S11304400E94410008958DB180648DB908958FB9DB
S1130450779BFECF8FB108952AB128612AB920B5C0
S1130460266820BDDC01CB01880F991FAA1FBB1F82
S1130470880F991FAA1FBB1F9C01AD01220F331FB8
S1130480441F551F220F331F441F551F60E074E2A1
S113049084EF90E00E9478028FEF820F89B9DA012D
S11304A0C9010197A109B109892F9A2FAB2FBB2745
S11304B080BD08955F9BFECF8CB108958CB95D9B80
S11304C0FECF08950F931F93CF93DF938C01C0E069
S11304D0D0E003C00E945E022196F801EC0FFD1FDC
S11304E080818111F7CFDF91CF911F910F910895F2
S11304F0A1E21A2EAA1BBB1BFD010DC0AA1FBB1F24
S1130500EE1FFF1FA217B307E407F50720F0A21B95
S1130510B30BE40BF50B661F771F881F991F1A9402
S113052069F760957095809590959B01AC01BD012C
S10B0530CF010895F894FFCFF8
S1130538010101010101010101010101010101019F
S11305480101010101010101010101010000010191
S1130558010101010101010101010101010101017F
S1130568010101010101010101010101010101016F
S1130578526F6F6D315F4F4E00526F6F6D315F4F29
S1130588464600526F6F6D325F4F4E00526F6F6D6B
S1130598325F4F464600526F6F6D335F4F4E0052C5
S11305A86F6F6D335F4F464600526F6F6D345F4F08
S10F05B84E00526F6F6D345F4F464600DA
S9030000FC
