S0110000636F6C6C6563746F722E737265634C
S11300000C942A000C943F000C943F000C943F0085
S11300100C943F000C943F000C943F000C943F0060
S11300200C943F000C943F000C943F000C943F0050
S11300300C943F000C943F000C943F000C943F0040
S11300400C943F000C943F000C943F000C943F0030
S11300500C943F0011241FBECFE5D8E0DEBFCDBF16
S113006010E0A0E6B0E0E4E7F5E002C005900D92F0
S1130070AC3AB107D9F70E9475020C94B8020C94FB
S11300800000982F9695969596958770913021F15A
S113009030F09230F1F1933009F458C00895613092
S11300A069F44BB321E030E0B90102C0660F771F59
S11300B08A95E2F7CB01842B8BBB08954BB321E0E7
S11300C030E0B90102C0660F771F8A95E2F7CB01D1
S11300D0809584238BBB0895613069F448B321E093
S11300E030E0B90102C0660F771F8A95E2F7CB01B1
S11300F0842B88BB089548B321E030E0B90102C0E5
S1130100660F771F8A95E2F7CB018095842388BB1D
S11301100895613069F445B321E030E0B90102C0CB
S1130120660F771F8A95E2F7CB01842B85BB089570
S113013045B321E030E0B90102C0660F771F8A950C
S1130140E2F7CB018095842385BB0895613069F47F
S113015042B321E030E0B90102C0660F771F8A95EF
S1130160E2F7CB01842B82BB089542B321E030E057
S1130170B90102C0660F771F8A95E2F7CB0180951B
S1130180842382BB0895CF93DF93CDB7DEB7C054E9
S1130190D1090FB6F894DEBF0FBECDBF80E4E0E610
S11301A0F0E0DE01119601900D928A95E1F780E06E
S11301B0B0C0982F969596959695282F27709130D4
S11301C081F138F0923009F454C0933009F479C0C5
S11301D09FC0E82FF0E0EE0FFF1F41E050E04C0F0E
S11301E05D1FE40FF51F9081913069F49AB341E0EB
S11301F050E0BA0102C0660F771F2A95E2F79B010F
S1130200292B2ABB85C09AB341E050E0BA0102C051
S1130210660F771F2A95E2F79B01209529232ABBB5
S113022077C0E82FF0E0EE0FFF1F41E050E04C0FE5
S11302305D1FE40FF51F9081913069F497B341E09D
S113024050E0BA0102C0660F771F2A95E2F79B01BE
S1130250292B27BB5DC097B341E050E0BA0102C02F
S1130260660F771F2A95E2F79B012095292327BB68
S11302704FC0E82FF0E0EE0FFF1F41E050E04C0FBD
S11302805D1FE40FF51F9081913069F494B341E050
S113029050E0BA0102C0660F771F2A95E2F79B016E
S11302A0292B24BB35C094B341E050E0BA0102C00D
S11302B0660F771F2A95E2F79B012095292324BB1B
S11302C027C0E82FF0E0EE0FFF1F41E050E04C0F95
S11302D05D1FE40FF51F9081913069F491B341E003
S11302E050E0BA0102C0660F771F2A95E2F79B011E
S11302F0292B21BB0DC091B341E050E0BA0102C0EB
S1130300660F771F2A95E2F79B012095292321BBCD
S11303108F5F803208F44DCFC05CDF4F0FB6F89486
S1130320DEBF0FBECDBFDF91CF910895CF93C82F0D
S11303308BB38F709C2F907F892B8BBB60E089E0FF
S11303400E94410061E08BE00E9441008FE891E04F
S11303500197F1F700C0000060E08BE00E944100CB
S11303608FE19EE40197F1F700C000002BB330E168
S1130370C39FC0011124922F9F70892B8BBB60E017
S113038089E00E94410061E08BE00E9441008FE817
S113039091E00197F1F700C0000060E08BE00E945B
S11303A04100CF91089560E08AE00E9441002FEF60
S11303B089EF90E0215080409040E1F700C00000B8
S11303C083E30E9496018FE193E00197F1F700C067
S11303D0000082E30E94960188E20E94960187E071
S11303E00E94960186E00E94960188E10E9496018F
S11303F08CE00E94960181E00E9496018FE39FE1C8
S11304000197F1F700C000000895CF93C82F8BB374
S11304108F709C2F907F892B8BBB61E089E00E94B9
S1130420410061E08BE00E9441008FE891E0019778
S1130430F1F700C0000060E08BE00E9441008FE112
S11304409EE40197F1F700C000002BB330E1C30232
S1130450C0011124922F9F70892B8BBB61E089E02E
S11304600E94410061E08BE00E9441008FE891E02E
S11304700197F1F700C0000060E08BE00E944100AA
S1130480CF9108950F931F93CF938C01C0E003C0C5
S11304900E940502CF5FF801EC0FF11D80818111EC
S11304A0F7CFCF911F910F91089581E00E9496019B
S11304B00895CF93DF93EC01613019F0623051F06D
S11304C011C0842F8F7080680E949601CE010E9413
S11304D0420208C0842F8F70806C0E949601CE0166
S11304E00E944202DF91CF9108950E94C30083E5E8
S11304F090E00E94A3020E94D3010E94550285E865
S11305000E94960141E061E080EA90E00E94590275
S11305100E94B4028E34910541F461E08AE10E94A4
S1130520410060E08BE10E9441000E94B4028839DE
S1130530910571F760E08AE10E94410061E08BE17E
S11305400E944100E5CF8D3419F0833549F00895B8
S11305508DB180658DB961E08CE00E944100089501
S11305608DB180648DB90895779BFECF8FB10895C6
S1070570F894FFCF29
S11305740101010101010101010101010101010163
S11305840101010101010101000000000101000059
S11305940101010101010101010101010101010143
S11305A40101010101010101010101010101010133
S10F05B448656C6C6F20414D49540000F8
S9030000FC
